{
  "contractName": "ERC721RaribleUser",
  "abi": [
    {
      "anonymous": false,
      "inputs": [
        {
          "indexed": true,
          "internalType": "address",
          "name": "owner",
          "type": "address"
        },
        {
          "indexed": true,
          "internalType": "address",
          "name": "approved",
          "type": "address"
        },
        {
          "indexed": true,
          "internalType": "uint256",
          "name": "tokenId",
          "type": "uint256"
        }
      ],
      "name": "Approval",
      "type": "event"
    },
    {
      "anonymous": false,
      "inputs": [
        {
          "indexed": true,
          "internalType": "address",
          "name": "owner",
          "type": "address"
        },
        {
          "indexed": true,
          "internalType": "address",
          "name": "operator",
          "type": "address"
        },
        {
          "indexed": false,
          "internalType": "bool",
          "name": "approved",
          "type": "bool"
        }
      ],
      "name": "ApprovalForAll",
      "type": "event"
    },
    {
      "anonymous": false,
      "inputs": [
        {
          "indexed": false,
          "internalType": "address",
          "name": "owner",
          "type": "address"
        },
        {
          "indexed": false,
          "internalType": "string",
          "name": "name",
          "type": "string"
        },
        {
          "indexed": false,
          "internalType": "string",
          "name": "symbol",
          "type": "string"
        }
      ],
      "name": "CreateERC721RaribleUser",
      "type": "event"
    },
    {
      "anonymous": false,
      "inputs": [
        {
          "indexed": true,
          "internalType": "uint256",
          "name": "tokenId",
          "type": "uint256"
        },
        {
          "components": [
            {
              "internalType": "address payable",
              "name": "account",
              "type": "address"
            },
            {
              "internalType": "uint96",
              "name": "value",
              "type": "uint96"
            }
          ],
          "indexed": false,
          "internalType": "struct LibPart.Part[]",
          "name": "creators",
          "type": "tuple[]"
        }
      ],
      "name": "Creators",
      "type": "event"
    },
    {
      "anonymous": false,
      "inputs": [
        {
          "indexed": true,
          "internalType": "address",
          "name": "previousOwner",
          "type": "address"
        },
        {
          "indexed": true,
          "internalType": "address",
          "name": "newOwner",
          "type": "address"
        }
      ],
      "name": "OwnershipTransferred",
      "type": "event"
    },
    {
      "anonymous": false,
      "inputs": [
        {
          "indexed": false,
          "internalType": "uint256",
          "name": "tokenId",
          "type": "uint256"
        },
        {
          "components": [
            {
              "internalType": "address payable",
              "name": "account",
              "type": "address"
            },
            {
              "internalType": "uint96",
              "name": "value",
              "type": "uint96"
            }
          ],
          "indexed": false,
          "internalType": "struct LibPart.Part[]",
          "name": "royalties",
          "type": "tuple[]"
        }
      ],
      "name": "RoyaltiesSet",
      "type": "event"
    },
    {
      "anonymous": false,
      "inputs": [
        {
          "indexed": true,
          "internalType": "address",
          "name": "from",
          "type": "address"
        },
        {
          "indexed": true,
          "internalType": "address",
          "name": "to",
          "type": "address"
        },
        {
          "indexed": true,
          "internalType": "uint256",
          "name": "tokenId",
          "type": "uint256"
        }
      ],
      "name": "Transfer",
      "type": "event"
    },
    {
      "inputs": [
        {
          "internalType": "address",
          "name": "to",
          "type": "address"
        },
        {
          "internalType": "uint256",
          "name": "tokenId",
          "type": "uint256"
        }
      ],
      "name": "approve",
      "outputs": [],
      "stateMutability": "nonpayable",
      "type": "function"
    },
    {
      "inputs": [
        {
          "internalType": "address",
          "name": "owner",
          "type": "address"
        }
      ],
      "name": "balanceOf",
      "outputs": [
        {
          "internalType": "uint256",
          "name": "",
          "type": "uint256"
        }
      ],
      "stateMutability": "view",
      "type": "function"
    },
    {
      "inputs": [],
      "name": "baseURI",
      "outputs": [
        {
          "internalType": "string",
          "name": "",
          "type": "string"
        }
      ],
      "stateMutability": "view",
      "type": "function"
    },
    {
      "inputs": [
        {
          "internalType": "uint256",
          "name": "tokenId",
          "type": "uint256"
        }
      ],
      "name": "burn",
      "outputs": [],
      "stateMutability": "nonpayable",
      "type": "function"
    },
    {
      "inputs": [],
      "name": "contractURI",
      "outputs": [
        {
          "internalType": "string",
          "name": "",
          "type": "string"
        }
      ],
      "stateMutability": "view",
      "type": "function"
    },
    {
      "inputs": [
        {
          "internalType": "uint256",
          "name": "tokenId",
          "type": "uint256"
        }
      ],
      "name": "getApproved",
      "outputs": [
        {
          "internalType": "address",
          "name": "",
          "type": "address"
        }
      ],
      "stateMutability": "view",
      "type": "function"
    },
    {
      "inputs": [
        {
          "internalType": "uint256",
          "name": "_id",
          "type": "uint256"
        }
      ],
      "name": "getCreators",
      "outputs": [
        {
          "components": [
            {
              "internalType": "address payable",
              "name": "account",
              "type": "address"
            },
            {
              "internalType": "uint96",
              "name": "value",
              "type": "uint96"
            }
          ],
          "internalType": "struct LibPart.Part[]",
          "name": "",
          "type": "tuple[]"
        }
      ],
      "stateMutability": "view",
      "type": "function"
    },
    {
      "inputs": [
        {
          "internalType": "uint256",
          "name": "id",
          "type": "uint256"
        }
      ],
      "name": "getRoyalties",
      "outputs": [
        {
          "components": [
            {
              "internalType": "address payable",
              "name": "account",
              "type": "address"
            },
            {
              "internalType": "uint96",
              "name": "value",
              "type": "uint96"
            }
          ],
          "internalType": "struct LibPart.Part[]",
          "name": "",
          "type": "tuple[]"
        }
      ],
      "stateMutability": "view",
      "type": "function"
    },
    {
      "inputs": [
        {
          "internalType": "address",
          "name": "owner",
          "type": "address"
        },
        {
          "internalType": "address",
          "name": "operator",
          "type": "address"
        }
      ],
      "name": "isApprovedForAll",
      "outputs": [
        {
          "internalType": "bool",
          "name": "",
          "type": "bool"
        }
      ],
      "stateMutability": "view",
      "type": "function"
    },
    {
      "inputs": [],
      "name": "name",
      "outputs": [
        {
          "internalType": "string",
          "name": "",
          "type": "string"
        }
      ],
      "stateMutability": "view",
      "type": "function"
    },
    {
      "inputs": [],
      "name": "owner",
      "outputs": [
        {
          "internalType": "address",
          "name": "",
          "type": "address"
        }
      ],
      "stateMutability": "view",
      "type": "function"
    },
    {
      "inputs": [
        {
          "internalType": "uint256",
          "name": "tokenId",
          "type": "uint256"
        }
      ],
      "name": "ownerOf",
      "outputs": [
        {
          "internalType": "address",
          "name": "",
          "type": "address"
        }
      ],
      "stateMutability": "view",
      "type": "function"
    },
    {
      "inputs": [],
      "name": "renounceOwnership",
      "outputs": [],
      "stateMutability": "nonpayable",
      "type": "function"
    },
    {
      "inputs": [
        {
          "internalType": "uint256",
          "name": "",
          "type": "uint256"
        },
        {
          "internalType": "uint256",
          "name": "",
          "type": "uint256"
        }
      ],
      "name": "royalties",
      "outputs": [
        {
          "internalType": "address payable",
          "name": "account",
          "type": "address"
        },
        {
          "internalType": "uint96",
          "name": "value",
          "type": "uint96"
        }
      ],
      "stateMutability": "view",
      "type": "function"
    },
    {
      "inputs": [
        {
          "internalType": "address",
          "name": "from",
          "type": "address"
        },
        {
          "internalType": "address",
          "name": "to",
          "type": "address"
        },
        {
          "internalType": "uint256",
          "name": "tokenId",
          "type": "uint256"
        }
      ],
      "name": "safeTransferFrom",
      "outputs": [],
      "stateMutability": "nonpayable",
      "type": "function"
    },
    {
      "inputs": [
        {
          "internalType": "address",
          "name": "from",
          "type": "address"
        },
        {
          "internalType": "address",
          "name": "to",
          "type": "address"
        },
        {
          "internalType": "uint256",
          "name": "tokenId",
          "type": "uint256"
        },
        {
          "internalType": "bytes",
          "name": "_data",
          "type": "bytes"
        }
      ],
      "name": "safeTransferFrom",
      "outputs": [],
      "stateMutability": "nonpayable",
      "type": "function"
    },
    {
      "inputs": [
        {
          "internalType": "address",
          "name": "operator",
          "type": "address"
        },
        {
          "internalType": "bool",
          "name": "approved",
          "type": "bool"
        }
      ],
      "name": "setApprovalForAll",
      "outputs": [],
      "stateMutability": "nonpayable",
      "type": "function"
    },
    {
      "inputs": [
        {
          "internalType": "bytes4",
          "name": "interfaceId",
          "type": "bytes4"
        }
      ],
      "name": "supportsInterface",
      "outputs": [
        {
          "internalType": "bool",
          "name": "",
          "type": "bool"
        }
      ],
      "stateMutability": "view",
      "type": "function"
    },
    {
      "inputs": [],
      "name": "symbol",
      "outputs": [
        {
          "internalType": "string",
          "name": "",
          "type": "string"
        }
      ],
      "stateMutability": "view",
      "type": "function"
    },
    {
      "inputs": [
        {
          "internalType": "uint256",
          "name": "index",
          "type": "uint256"
        }
      ],
      "name": "tokenByIndex",
      "outputs": [
        {
          "internalType": "uint256",
          "name": "",
          "type": "uint256"
        }
      ],
      "stateMutability": "view",
      "type": "function"
    },
    {
      "inputs": [
        {
          "internalType": "address",
          "name": "owner",
          "type": "address"
        },
        {
          "internalType": "uint256",
          "name": "index",
          "type": "uint256"
        }
      ],
      "name": "tokenOfOwnerByIndex",
      "outputs": [
        {
          "internalType": "uint256",
          "name": "",
          "type": "uint256"
        }
      ],
      "stateMutability": "view",
      "type": "function"
    },
    {
      "inputs": [
        {
          "internalType": "uint256",
          "name": "tokenId",
          "type": "uint256"
        }
      ],
      "name": "tokenURI",
      "outputs": [
        {
          "internalType": "string",
          "name": "",
          "type": "string"
        }
      ],
      "stateMutability": "view",
      "type": "function"
    },
    {
      "inputs": [],
      "name": "totalSupply",
      "outputs": [
        {
          "internalType": "uint256",
          "name": "",
          "type": "uint256"
        }
      ],
      "stateMutability": "view",
      "type": "function"
    },
    {
      "inputs": [
        {
          "internalType": "address",
          "name": "from",
          "type": "address"
        },
        {
          "internalType": "address",
          "name": "to",
          "type": "address"
        },
        {
          "internalType": "uint256",
          "name": "tokenId",
          "type": "uint256"
        }
      ],
      "name": "transferFrom",
      "outputs": [],
      "stateMutability": "nonpayable",
      "type": "function"
    },
    {
      "inputs": [
        {
          "components": [
            {
              "internalType": "uint256",
              "name": "tokenId",
              "type": "uint256"
            },
            {
              "internalType": "string",
              "name": "tokenURI",
              "type": "string"
            },
            {
              "components": [
                {
                  "internalType": "address payable",
                  "name": "account",
                  "type": "address"
                },
                {
                  "internalType": "uint96",
                  "name": "value",
                  "type": "uint96"
                }
              ],
              "internalType": "struct LibPart.Part[]",
              "name": "creators",
              "type": "tuple[]"
            },
            {
              "components": [
                {
                  "internalType": "address payable",
                  "name": "account",
                  "type": "address"
                },
                {
                  "internalType": "uint96",
                  "name": "value",
                  "type": "uint96"
                }
              ],
              "internalType": "struct LibPart.Part[]",
              "name": "royalties",
              "type": "tuple[]"
            },
            {
              "internalType": "bytes[]",
              "name": "signatures",
              "type": "bytes[]"
            }
          ],
          "internalType": "struct LibERC721LazyMint.Mint721Data",
          "name": "data",
          "type": "tuple"
        },
        {
          "internalType": "address",
          "name": "from",
          "type": "address"
        },
        {
          "internalType": "address",
          "name": "to",
          "type": "address"
        }
      ],
      "name": "transferFromOrMint",
      "outputs": [],
      "stateMutability": "nonpayable",
      "type": "function"
    },
    {
      "inputs": [
        {
          "internalType": "address",
          "name": "newOwner",
          "type": "address"
        }
      ],
      "name": "transferOwnership",
      "outputs": [],
      "stateMutability": "nonpayable",
      "type": "function"
    },
    {
      "inputs": [
        {
          "internalType": "uint256",
          "name": "_id",
          "type": "uint256"
        },
        {
          "internalType": "address",
          "name": "_from",
          "type": "address"
        },
        {
          "internalType": "address",
          "name": "_to",
          "type": "address"
        }
      ],
      "name": "updateAccount",
      "outputs": [],
      "stateMutability": "nonpayable",
      "type": "function"
    },
    {
      "inputs": [
        {
          "internalType": "string",
          "name": "_name",
          "type": "string"
        },
        {
          "internalType": "string",
          "name": "_symbol",
          "type": "string"
        },
        {
          "internalType": "string",
          "name": "baseURI",
          "type": "string"
        },
        {
          "internalType": "string",
          "name": "contractURI",
          "type": "string"
        },
        {
          "internalType": "address[]",
          "name": "operators",
          "type": "address[]"
        }
      ],
      "name": "__ERC721RaribleUser_init",
      "outputs": [],
      "stateMutability": "nonpayable",
      "type": "function"
    },
    {
      "inputs": [
        {
          "components": [
            {
              "internalType": "uint256",
              "name": "tokenId",
              "type": "uint256"
            },
            {
              "internalType": "string",
              "name": "tokenURI",
              "type": "string"
            },
            {
              "components": [
                {
                  "internalType": "address payable",
                  "name": "account",
                  "type": "address"
                },
                {
                  "internalType": "uint96",
                  "name": "value",
                  "type": "uint96"
                }
              ],
              "internalType": "struct LibPart.Part[]",
              "name": "creators",
              "type": "tuple[]"
            },
            {
              "components": [
                {
                  "internalType": "address payable",
                  "name": "account",
                  "type": "address"
                },
                {
                  "internalType": "uint96",
                  "name": "value",
                  "type": "uint96"
                }
              ],
              "internalType": "struct LibPart.Part[]",
              "name": "royalties",
              "type": "tuple[]"
            },
            {
              "internalType": "bytes[]",
              "name": "signatures",
              "type": "bytes[]"
            }
          ],
          "internalType": "struct LibERC721LazyMint.Mint721Data",
          "name": "data",
          "type": "tuple"
        },
        {
          "internalType": "address",
          "name": "to",
          "type": "address"
        }
      ],
      "name": "mintAndTransfer",
      "outputs": [],
      "stateMutability": "nonpayable",
      "type": "function"
    }
  ],
  "bytecode": "0x608060405234801561001057600080fd5b50614408806100206000396000f3fe608060405234801561001057600080fd5b50600436106101cf5760003560e01c8063715018a611610104578063b88d4fde116100a2578063e07f231911610071578063e07f2319146103c7578063e8a3d485146103da578063e985e9c5146103e2578063f2fde38b146103f5576101cf565b8063b88d4fde1461037b578063bb3bafd61461038e578063c4552e24146103a1578063c87b56dd146103b4576101cf565b80638924af74116100de5780638924af74146103375780638da5cb5b1461035857806395d89b4114610360578063a22cb46514610368576101cf565b8063715018a6146102fc578063832fbb2914610304578063891be97414610317576101cf565b80632f745c59116101715780634f6ccce71161014b5780634f6ccce7146102bb5780636352211e146102ce5780636c0360eb146102e157806370a08231146102e9576101cf565b80632f745c591461028257806342842e0e1461029557806342966c68146102a8576101cf565b8063095ea7b3116101ad578063095ea7b31461023257806318160ddd1461024757806322a775b61461025c57806323b872dd1461026f576101cf565b806301ffc9a7146101d457806306fdde03146101fd578063081812fc14610212575b600080fd5b6101e76101e2366004613b4d565b610408565b6040516101f49190613e68565b60405180910390f35b61020561042b565b6040516101f49190613e73565b610225610220366004613ce8565b6104c1565b6040516101f49190613de9565b610245610240366004613b22565b610523565b005b61024f6105f9565b6040516101f49190614018565b61024561026a366004613c41565b61060a565b61024561027d366004613a47565b610675565b61024f610290366004613b22565b6106cc565b6102456102a3366004613a47565b6106f7565b6102456102b6366004613ce8565b610712565b61024f6102c9366004613ce8565b610764565b6102256102dc366004613ce8565b61077a565b6102056107a2565b61024f6102f73660046139f3565b610803565b61024561086b565b610245610312366004613c86565b610929565b61032a610325366004613ce8565b610957565b6040516101f49190613e55565b61034a610345366004613d26565b6109e7565b6040516101f4929190613e33565b610225610a31565b610205610a40565b610245610376366004613af1565b610aa1565b610245610389366004613a87565b610ba6565b61032a61039c366004613ce8565b610c04565b6102456103af366004613b75565b610c7f565b6102056103c2366004613ce8565b610def565b6102456103d5366004613d00565b611070565b6102056110b3565b6101e76103f0366004613a0f565b611142565b6102456104033660046139f3565b611170565b6001600160e01b0319811660009081526065602052604090205460ff165b919050565b609c8054604080516020601f60026000196101006001881615020190951694909404938401819004810282018101909252828152606093909290918301828280156104b75780601f1061048c576101008083540402835291602001916104b7565b820191906000526020600020905b81548152906001019060200180831161049a57829003601f168201915b5050505050905090565b60006104cc82611285565b6105075760405162461bcd60e51b815260040180806020018281038252602c8152602001806142a1602c913960400191505060405180910390fd5b506000908152609a60205260409020546001600160a01b031690565b600061052e8261077a565b9050806001600160a01b0316836001600160a01b031614156105815760405162461bcd60e51b81526004018080602001828103825260218152602001806143516021913960400191505060405180910390fd5b806001600160a01b0316610593611292565b6001600160a01b031614806105af57506105af816103f0611292565b6105ea5760405162461bcd60e51b81526004018080602001828103825260388152602001806141a46038913960400191505060405180910390fd5b6105f48383611296565b505050565b60006106056098611304565b905090565b816040015160008151811061061b57fe5b6020026020010151600001516001600160a01b0316610638610a31565b6001600160a01b0316146106675760405162461bcd60e51b815260040161065e90613e86565b60405180910390fd5b610671828261130f565b5050565b610686610680611292565b82611491565b6106c15760405162461bcd60e51b81526004018080602001828103825260318152602001806143726031913960400191505060405180910390fd5b6105f4838383611535565b6001600160a01b03821660009081526097602052604081206106ee9083611681565b90505b92915050565b6105f483838360405180602001604052806000815250610ba6565b61071d610680611292565b6107585760405162461bcd60e51b81526004018080602001828103825260308152602001806143a36030913960400191505060405180910390fd5b6107618161168d565b50565b60008061077260988461175a565b509392505050565b60006106f1826040518060600160405280602981526020016142066029913960989190611776565b609f8054604080516020601f60026000196101006001881615020190951694909404938401819004810282018101909252828152606093909290918301828280156104b75780601f1061048c576101008083540402835291602001916104b7565b60006001600160a01b03821661084a5760405162461bcd60e51b815260040180806020018281038252602a8152602001806141dc602a913960400191505060405180910390fd5b6001600160a01b03821660009081526097602052604090206106f190611304565b610873611292565b6001600160a01b0316610884610a31565b6001600160a01b0316146108df576040805162461bcd60e51b815260206004820181905260248201527f4f776e61626c653a2063616c6c6572206973206e6f7420746865206f776e6572604482015290519081900360640190fd5b6033546040516000916001600160a01b0316907f8be0079c531659141344cd1fd0a4f28419497f9722a3daafe3b4186f6b6457e0908390a3603380546001600160a01b0319169055565b825161093490611285565b1561094d57610948828285600001516106f7565b6105f4565b6105f4838261060a565b60606101946000838152602001908152602001600020805480602002602001604051908101604052809291908181526020016000905b828210156109dc57600084815260209081902060408051808201909152908401546001600160a01b0381168252600160a01b90046001600160601b03168183015282526001909201910161098d565b505050509050919050565b6101936020528160005260406000208181548110610a0457600080fd5b6000918252602090912001546001600160a01b0381169250600160a01b90046001600160601b0316905082565b6033546001600160a01b031690565b609d8054604080516020601f60026000196101006001881615020190951694909404938401819004810282018101909252828152606093909290918301828280156104b75780601f1061048c576101008083540402835291602001916104b7565b610aa9611292565b6001600160a01b0316826001600160a01b03161415610b0f576040805162461bcd60e51b815260206004820152601960248201527f4552433732313a20617070726f766520746f2063616c6c657200000000000000604482015290519081900360640190fd5b80609b6000610b1c611292565b6001600160a01b03908116825260208083019390935260409182016000908120918716808252919093529120805460ff191692151592909217909155610b60611292565b6001600160a01b03167f17307eab39ab6107e8899845ad3d59bd9653f200f220920489ca2b5937696c318360405180821515815260200191505060405180910390a35050565b610bb7610bb1611292565b83611491565b610bf25760405162461bcd60e51b81526004018080602001828103825260318152602001806143726031913960400191505060405180910390fd5b610bfe8484848461178d565b50505050565b6000818152610193602090815260408083208054825181850281018501909352808352606094929391929091840182156109dc57600084815260209081902060408051808201909152908401546001600160a01b0381168252600160a01b90046001600160601b03168183015282526001909201910161098d565b600054610100900460ff1680610c985750610c986117df565b80610ca6575060005460ff16155b610ce15760405162461bcd60e51b815260040180806020018281038252602e81526020018061422f602e913960400191505060405180910390fd5b600054610100900460ff16158015610d0c576000805460ff1961ff0019909116610100171660011790555b610d15846117f0565b610d1d611803565b610d256118b4565b610d2d611954565b610d356119f1565b610d3d6118b4565b610d45611aea565b610d4e83611bb9565b610d56611c80565b610d608686611d1d565b60005b8251811015610d9257610d8a838281518110610d7b57fe5b60200260200101516001610aa1565b600101610d63565b507fd901a467fa419f379a67636a1de44cc2ed772beb43a0c05fa1ddcad5d59e9913610dbc611292565b8787604051610dcd93929190613dfd565b60405180910390a18015610de7576000805461ff00191690555b505050505050565b6060610dfa82611285565b610e355760405162461bcd60e51b815260040180806020018281038252602f815260200180614322602f913960400191505060405180910390fd5b6000828152609e602090815260408083208054825160026001831615610100026000190190921691909104601f810185900485028201850190935282815292909190830182828015610ec85780601f10610e9d57610100808354040283529160200191610ec8565b820191906000526020600020905b815481529060010190602001808311610eab57829003601f168201915b505050505090506000610ed96107a2565b9050805160001415610eed57509050610426565b815115610fae5780826040516020018083805190602001908083835b60208310610f285780518252601f199092019160209182019101610f09565b51815160209384036101000a600019018019909216911617905285519190930192850191508083835b60208310610f705780518252601f199092019160209182019101610f51565b6001836020036101000a0380198251168184511680821785525050505050509050019250505060405160208183030381529060405292505050610426565b80610fb885611e18565b6040516020018083805190602001908083835b60208310610fea5780518252601f199092019160209182019101610fcb565b51815160209384036101000a600019018019909216911617905285519190930192850191508083835b602083106110325780518252601f199092019160209182019101611013565b6001836020036101000a0380198251168184511680821785525050505050509050019250505060405160208183030381529060405292505050919050565b816001600160a01b0316611082611292565b6001600160a01b0316146110a85760405162461bcd60e51b815260040161065e90613f1d565b6105f4838383611ef3565b6101c7805460408051602060026001851615610100026000190190941693909304601f8101849004840282018401909252818152929183018282801561113a5780601f1061110f5761010080835404028352916020019161113a565b820191906000526020600020905b81548152906001019060200180831161111d57829003601f168201915b505050505081565b6001600160a01b039182166000908152609b6020908152604080832093909416825291909152205460ff1690565b611178611292565b6001600160a01b0316611189610a31565b6001600160a01b0316146111e4576040805162461bcd60e51b815260206004820181905260248201527f4f776e61626c653a2063616c6c6572206973206e6f7420746865206f776e6572604482015290519081900360640190fd5b6001600160a01b0381166112295760405162461bcd60e51b81526004018080602001828103825260268152602001806140e66026913960400191505060405180910390fd5b6033546040516001600160a01b038084169216907f8be0079c531659141344cd1fd0a4f28419497f9722a3daafe3b4186f6b6457e090600090a3603380546001600160a01b0319166001600160a01b0392909216919091179055565b60006106f1609883611f9f565b3390565b6000818152609a6020526040902080546001600160a01b0319166001600160a01b03841690811790915581906112cb8261077a565b6001600160a01b03167f8c5be1e5ebec7d5bd14f71427d1e84f3dd0314c0f7b2291e5b200ac8c7c3b92560405160405180910390a45050565b60006106f182611fab565b815160601c600061131e611292565b9050836040015160008151811061133157fe5b6020026020010151600001516001600160a01b0316826001600160a01b03161461136d5760405162461bcd60e51b815260040161065e90613ef2565b8360800151518460400151511461138357600080fd5b806001600160a01b0316826001600160a01b031614806113a857506113a88282611142565b6113c45760405162461bcd60e51b815260040161065e90613f79565b60006113cf85611faf565b905060005b856040015151811015611445576000866040015182815181106113f357fe5b6020026020010151600001519050836001600160a01b0316816001600160a01b03161461143c5761143c81848960800151858151811061142f57fe5b60200260200101516121f8565b506001016113d4565b50611454848660000151612203565b6114668560000151866060015161221d565b611478856000015186604001516123a3565b61148a85600001518660200151612551565b5050505050565b600061149c82611285565b6114d75760405162461bcd60e51b815260040180806020018281038252602c815260200180614178602c913960400191505060405180910390fd5b60006114e28361077a565b9050806001600160a01b0316846001600160a01b0316148061151d5750836001600160a01b0316611512846104c1565b6001600160a01b0316145b8061152d575061152d8185611142565b949350505050565b826001600160a01b03166115488261077a565b6001600160a01b03161461158d5760405162461bcd60e51b81526004018080602001828103825260298152602001806142f96029913960400191505060405180910390fd5b6001600160a01b0382166115d25760405162461bcd60e51b815260040180806020018281038252602481526020018061410c6024913960400191505060405180910390fd5b6115dd8383836105f4565b6115e8600082611296565b6001600160a01b038316600090815260976020526040902061160a90826125b4565b506001600160a01b038216600090815260976020526040902061162d90826125c0565b5061163a609882846125cc565b5080826001600160a01b0316846001600160a01b03167fddf252ad1be2c89b69c2b068fc378daa952ba7f163c4a11628f55a4df523b3ef60405160405180910390a4505050565b60006106ee83836125e2565b60006116988261077a565b90506116a6816000846105f4565b6116b1600083611296565b6000828152609e602052604090205460026000196101006001841615020190911604156116ef576000828152609e602052604081206116ef9161365f565b6001600160a01b038116600090815260976020526040902061171190836125b4565b5061171d609883612646565b5060405182906000906001600160a01b038416907fddf252ad1be2c89b69c2b068fc378daa952ba7f163c4a11628f55a4df523b3ef908390a45050565b60008080806117698686612652565b9097909650945050505050565b60006117838484846126cd565b90505b9392505050565b611798848484611535565b6117a484848484612797565b610bfe5760405162461bcd60e51b81526004018080602001828103825260328152602001806140b46032913960400191505060405180910390fd5b60006117ea306128ff565b15905090565b805161067190609f9060208401906136a3565b600054610100900460ff168061181c575061181c6117df565b8061182a575060005460ff16155b6118655760405162461bcd60e51b815260040180806020018281038252602e81526020018061422f602e913960400191505060405180910390fd5b600054610100900460ff16158015611890576000805460ff1961ff0019909116610100171660011790555b6118a0638486f69f60e01b612905565b8015610761576000805461ff001916905550565b600054610100900460ff16806118cd57506118cd6117df565b806118db575060005460ff16155b6119165760405162461bcd60e51b815260040180806020018281038252602e81526020018061422f602e913960400191505060405180910390fd5b600054610100900460ff161580156118a0576000805460ff1961ff0019909116610100171660011790558015610761576000805461ff001916905550565b600054610100900460ff168061196d575061196d6117df565b8061197b575060005460ff16155b6119b65760405162461bcd60e51b815260040180806020018281038252602e81526020018061422f602e913960400191505060405180910390fd5b600054610100900460ff161580156119e1576000805460ff1961ff0019909116610100171660011790555b6118a06301ffc9a760e01b612905565b600054610100900460ff1680611a0a5750611a0a6117df565b80611a18575060005460ff16155b611a535760405162461bcd60e51b815260040180806020018281038252602e81526020018061422f602e913960400191505060405180910390fd5b600054610100900460ff16158015611a7e576000805460ff1961ff0019909116610100171660011790555b6000611a88611292565b603380546001600160a01b0319166001600160a01b038316908117909155604051919250906000907f8be0079c531659141344cd1fd0a4f28419497f9722a3daafe3b4186f6b6457e0908290a3508015610761576000805461ff001916905550565b600054610100900460ff1680611b035750611b036117df565b80611b11575060005460ff16155b611b4c5760405162461bcd60e51b815260040180806020018281038252602e81526020018061422f602e913960400191505060405180910390fd5b600054610100900460ff16158015611b77576000805460ff1961ff0019909116610100171660011790555b6118a0604051806040016040528060078152602001664d696e7437323160c81b815250604051806040016040528060018152602001603160f81b815250612989565b600054610100900460ff1680611bd25750611bd26117df565b80611be0575060005460ff16155b611c1b5760405162461bcd60e51b815260040180806020018281038252602e81526020018061422f602e913960400191505060405180910390fd5b600054610100900460ff16158015611c46576000805460ff1961ff0019909116610100171660011790555b8151611c5a906101c79060208501906136a3565b50611c6b63e8a3d48560e01b612905565b8015610671576000805461ff00191690555050565b600054610100900460ff1680611c995750611c996117df565b80611ca7575060005460ff16155b611ce25760405162461bcd60e51b815260040180806020018281038252602e81526020018061422f602e913960400191505060405180910390fd5b600054610100900460ff16158015611d0d576000805460ff1961ff0019909116610100171660011790555b6118a0631131d2f360e21b612905565b600054610100900460ff1680611d365750611d366117df565b80611d44575060005460ff16155b611d7f5760405162461bcd60e51b815260040180806020018281038252602e81526020018061422f602e913960400191505060405180910390fd5b600054610100900460ff16158015611daa576000805460ff1961ff0019909116610100171660011790555b8251611dbd90609c9060208601906136a3565b508151611dd190609d9060208501906136a3565b50611de26380ac58cd60e01b612905565b611df2635b5e139f60e01b612905565b611e0263780e9d6360e01b612905565b80156105f4576000805461ff0019169055505050565b606081611e3d57506040805180820190915260018152600360fc1b6020820152610426565b8160005b8115611e5557600101600a82049150611e41565b60008167ffffffffffffffff81118015611e6e57600080fd5b506040519080825280601f01601f191660200182016040528015611e99576020820181803683370190505b50859350905060001982015b8315611eea57600a840660300160f81b82828060019003935081518110611ec857fe5b60200101906001600160f81b031916908160001a905350600a84049350611ea5565b50949350505050565b60008381526101936020526040812054905b8181101561148a5760008581526101936020526040902080546001600160a01b038616919083908110611f3457fe5b6000918252602090912001546001600160a01b03161415611f9757600085815261019360205260409020805484919083908110611f6d57fe5b600091825260209091200180546001600160a01b0319166001600160a01b03929092169190911790555b600101611f05565b60006106ee8383612a49565b5490565b60008082606001515167ffffffffffffffff81118015611fce57600080fd5b50604051908082528060200260200182016040528015611ff8578160200160208202803683370190505b50905060005b83606001515181101561204a5761202b8460600151828151811061201e57fe5b6020026020010151612a61565b82828151811061203757fe5b6020908102919091010152600101611ffe565b50600083604001515167ffffffffffffffff8111801561206957600080fd5b50604051908082528060200260200182016040528015612093578160200160208202803683370190505b50905060005b8460400151518110156120d8576120b98560400151828151811061201e57fe5b8282815181106120c557fe5b6020908102919091010152600101612099565b507ff64326045af5fd7e15297ba939f85b550474d3899daa47d2bc1ffbdb9ced344e84600001518560200151805190602001208360405160200180828051906020019060200280838360005b8381101561213c578181015183820152602001612124565b50505050905001915050604051602081830303815290604052805190602001208560405160200180828051906020019060200280838360005b8381101561218d578181015183820152602001612175565b505050509050019150506040516020818303038152906040528051906020012060405160200180868152602001858152602001848152602001838152602001828152602001955050505050506040516020818303038152906040528051906020012092505050919050565b6105f4838383612ace565b610671828260405180602001604052806000815250612d06565b60005b81518110156123985760006001600160a01b031682828151811061224057fe5b6020026020010151600001516001600160a01b031614156122a8576040805162461bcd60e51b815260206004820152601b60248201527f526563697069656e742073686f756c642062652070726573656e740000000000604482015290519081900360640190fd5b8181815181106122b457fe5b6020026020010151602001516001600160601b03166000141561231e576040805162461bcd60e51b815260206004820181905260248201527f526f79616c74792076616c75652073686f756c6420626520706f736974697665604482015290519081900360640190fd5b600083815261019360205260409020825183908390811061233b57fe5b60209081029190910181015182546001818101855560009485529383902082519101805492909301516001600160601b0316600160a01b026001600160a01b039182166001600160a01b0319909316929092171617905501612220565b506106718282612d58565b60008281526101946020526040812090805b83518110156124f15760006001600160a01b03168482815181106123d557fe5b6020026020010151600001516001600160a01b031614156124085760405162461bcd60e51b815260040161065e90613f42565b83818151811061241457fe5b6020026020010151602001516001600160601b0316600014156124495760405162461bcd60e51b815260040161065e90613ebd565b8284828151811061245657fe5b602090810291909101810151825460018101845560009384529282902081519301805491909201516001600160601b0316600160a01b026001600160a01b039384166001600160a01b03199092169190911790921691909117905583516124e7908590839081106124c357fe5b6020026020010151602001516001600160601b031683612d9590919063ffffffff16565b91506001016123b5565b5080612710146125135760405162461bcd60e51b815260040161065e90613fca565b837f841ffb90d4cabdd1f16034f3fa831d79060febbb8167bdd54a49269365bdf78f846040516125439190613e55565b60405180910390a250505050565b61255a82611285565b6125955760405162461bcd60e51b815260040180806020018281038252602c8152602001806142cd602c913960400191505060405180910390fd5b6000828152609e6020908152604090912082516105f4928401906136a3565b60006106ee8383612def565b60006106ee8383612eb5565b600061178384846001600160a01b038516612eff565b815460009082106126245760405162461bcd60e51b81526004018080602001828103825260228152602001806140926022913960400191505060405180910390fd5b82600001828154811061263357fe5b9060005260206000200154905092915050565b60006106ee8383612f96565b8154600090819083106126965760405162461bcd60e51b815260040180806020018281038252602281526020018061427f6022913960400191505060405180910390fd5b60008460000184815481106126a757fe5b906000526020600020906002020190508060000154816001015492509250509250929050565b600082815260018401602052604081205482816127685760405162461bcd60e51b81526004018080602001828103825283818151815260200191508051906020019080838360005b8381101561272d578181015183820152602001612715565b50505050905090810190601f16801561275a5780820380516001836020036101000a031916815260200191505b509250505060405180910390fd5b5084600001600182038154811061277b57fe5b9060005260206000209060020201600101549150509392505050565b60006127ab846001600160a01b03166128ff565b6127b75750600161152d565b60006128c5630a85bd0160e11b6127cc611292565b88878760405160240180856001600160a01b03168152602001846001600160a01b0316815260200183815260200180602001828103825283818151815260200191508051906020019080838360005b8381101561283357818101518382015260200161281b565b50505050905090810190601f1680156128605780820380516001836020036101000a031916815260200191505b5095505050505050604051602081830303815290604052906001600160e01b0319166020820180516001600160e01b0383818316178352505050506040518060600160405280603281526020016140b4603291396001600160a01b038816919061306a565b905060008180602001905160208110156128de57600080fd5b50516001600160e01b031916630a85bd0160e11b1492505050949350505050565b3b151590565b6001600160e01b03198082161415612964576040805162461bcd60e51b815260206004820152601c60248201527f4552433136353a20696e76616c696420696e7465726661636520696400000000604482015290519081900360640190fd5b6001600160e01b0319166000908152606560205260409020805460ff19166001179055565b600054610100900460ff16806129a257506129a26117df565b806129b0575060005460ff16155b6129eb5760405162461bcd60e51b815260040180806020018281038252602e81526020018061422f602e913960400191505060405180910390fd5b600054610100900460ff16158015612a16576000805460ff1961ff0019909116610100171660011790555b825160208085019190912083519184019190912060fb9190915560fc5580156105f4576000805461ff0019169055505050565b60009081526001919091016020526040902054151590565b8051602091820151604080517f397e04204c1e1a60ee8724b71f8244e10ab5f2e9009854d80f602bda21b59ebb818601526001600160a01b03909316838201526001600160601b039091166060808401919091528151808403909101815260809092019052805191012090565b6000612ad983613079565b9050612aed846001600160a01b03166128ff565b15612c665760408051630b135d3f60e11b808252600482018481526024830193845285516044840152855191936001600160a01b03891693631626ba7e938793899390929091606490910190602085019080838360005b83811015612b5c578181015183820152602001612b44565b50505050905090810190601f168015612b895780820380516001836020036101000a031916815260200191505b50935050505060206040518083038186803b158015612ba757600080fd5b505afa158015612bbb573d6000803e3d6000fd5b505050506040513d6020811015612bd157600080fd5b505160408051808201909152601c81527f7369676e617475726520766572696669636174696f6e206572726f72000000006020820152916001600160e01b031990911614612c605760405162461bcd60e51b815260206004820181815283516024840152835190928392604490910191908501908083836000831561272d578181015183820152602001612715565b50610bfe565b6001600160a01b038416612c7a82846130c5565b6001600160a01b0316146040518060400160405280601c81526020017f7369676e617475726520766572696669636174696f6e206572726f72000000008152509061148a5760405162461bcd60e51b815260206004820181815283516024840152835190928392604490910191908501908083836000831561272d578181015183820152602001612715565b612d108383613145565b612d1d6000848484612797565b6105f45760405162461bcd60e51b81526004018080602001828103825260328152602001806140b46032913960400191505060405180910390fd5b7f3fa96d7b6bcbfe71ef171666d84db3cf52fa2d1c8afdb1cc8e486177f208b7df8282604051612d89929190614021565b60405180910390a15050565b6000828201838110156106ee576040805162461bcd60e51b815260206004820152601b60248201527f536166654d6174683a206164646974696f6e206f766572666c6f770000000000604482015290519081900360640190fd5b60008181526001830160205260408120548015612eab5783546000198083019190810190600090879083908110612e2257fe5b9060005260206000200154905080876000018481548110612e3f57fe5b600091825260208083209091019290925582815260018981019092526040902090840190558654879080612e6f57fe5b600190038181906000526020600020016000905590558660010160008781526020019081526020016000206000905560019450505050506106f1565b60009150506106f1565b6000612ec18383612a49565b612ef7575081546001818101845560008481526020808220909301849055845484825282860190935260409020919091556106f1565b5060006106f1565b600082815260018401602052604081205480612f64575050604080518082018252838152602080820184815286546001818101895560008981528481209551600290930290950191825591519082015586548684528188019092529290912055611786565b82856000016001830381548110612f7757fe5b9060005260206000209060020201600101819055506000915050611786565b60008181526001830160205260408120548015612eab5783546000198083019190810190600090879083908110612fc957fe5b9060005260206000209060020201905080876000018481548110612fe957fe5b60009182526020808320845460029093020191825560019384015491840191909155835482528983019052604090209084019055865487908061302857fe5b60008281526020808220600260001990940193840201828155600190810183905592909355888152898201909252604082209190915594506106f19350505050565b60606117838484600085613273565b60006130836133ce565b82604051602001808061190160f01b81525060020183815260200182815260200192505050604051602081830303815290604052805190602001209050919050565b6000815160411461311d576040805162461bcd60e51b815260206004820152601f60248201527f45434453413a20696e76616c6964207369676e6174757265206c656e67746800604482015290519081900360640190fd5b60208201516040830151606084015160001a61313b86828585613409565b9695505050505050565b6001600160a01b0382166131a0576040805162461bcd60e51b815260206004820181905260248201527f4552433732313a206d696e7420746f20746865207a65726f2061646472657373604482015290519081900360640190fd5b6131a981611285565b156131fb576040805162461bcd60e51b815260206004820152601c60248201527f4552433732313a20746f6b656e20616c7265616479206d696e74656400000000604482015290519081900360640190fd5b613207600083836105f4565b6001600160a01b038216600090815260976020526040902061322990826125c0565b50613236609882846125cc565b5060405181906001600160a01b038416906000907fddf252ad1be2c89b69c2b068fc378daa952ba7f163c4a11628f55a4df523b3ef908290a45050565b6060824710156132b45760405162461bcd60e51b81526004018080602001828103825260268152602001806141526026913960400191505060405180910390fd5b6132bd856128ff565b61330e576040805162461bcd60e51b815260206004820152601d60248201527f416464726573733a2063616c6c20746f206e6f6e2d636f6e7472616374000000604482015290519081900360640190fd5b600080866001600160a01b031685876040518082805190602001908083835b6020831061334c5780518252601f19909201916020918201910161332d565b6001836020036101000a03801982511681845116808217855250505050505090500191505060006040518083038185875af1925050503d80600081146133ae576040519150601f19603f3d011682016040523d82523d6000602084013e6133b3565b606091505b50915091506133c3828286613587565b979650505050505050565b60006106057f8b73c3c69bb8fe3d512ecc4cf759cc79239f7b179b0ffacaa9a75d522b39400f6133fc6135ed565b6134046135f3565b6135f9565b60007f7fffffffffffffffffffffffffffffff5d576e7357a4501ddfe92f46681b20a082111561346a5760405162461bcd60e51b81526004018080602001828103825260228152602001806141306022913960400191505060405180910390fd5b8360ff16601b148061347f57508360ff16601c145b6134ba5760405162461bcd60e51b815260040180806020018281038252602281526020018061425d6022913960400191505060405180910390fd5b600060018686868660405160008152602001604052604051808581526020018460ff1681526020018381526020018281526020019450505050506020604051602081039080840390855afa158015613516573d6000803e3d6000fd5b5050604051601f1901519150506001600160a01b03811661357e576040805162461bcd60e51b815260206004820152601860248201527f45434453413a20696e76616c6964207369676e61747572650000000000000000604482015290519081900360640190fd5b95945050505050565b60608315613596575081611786565b8251156135a65782518084602001fd5b60405162461bcd60e51b815260206004820181815284516024840152845185939192839260440191908501908083836000831561272d578181015183820152602001612715565b60fb5490565b60fc5490565b600083838361360661365b565b3060405160200180868152602001858152602001848152602001838152602001826001600160a01b03168152602001955050505050506040516020818303038152906040528051906020012090509392505050565b4690565b50805460018160011615610100020316600290046000825580601f106136855750610761565b601f016020900490600052602060002090810190610761919061372f565b828054600181600116156101000203166002900490600052602060002090601f0160209004810192826136d9576000855561371f565b82601f106136f257805160ff191683800117855561371f565b8280016001018555821561371f579182015b8281111561371f578251825591602001919060010190613704565b5061372b92915061372f565b5090565b5b8082111561372b5760008155600101613730565b600082601f830112613754578081fd5b813560206137696137648361405e565b61403a565b8281528181019085830183850287018401881015613785578586fd5b855b858110156137ac57813561379a8161407c565b84529284019290840190600101613787565b5090979650505050505050565b600082601f8301126137c9578081fd5b813560206137d96137648361405e565b82815281810190858301855b858110156137ac576137fc898684358b01016138ca565b845292840192908401906001016137e5565b600082601f83011261381e578081fd5b8135602061382e6137648361405e565b8281528181019085830160408086028801850189101561384c578687fd5b865b868110156138bc5781838b031215613864578788fd5b815182810181811067ffffffffffffffff8211171561387f57fe5b8352833561388c8161407c565b8152838701356001600160601b03811681146138a657898afd5b818801528552938501939181019160010161384e565b509198975050505050505050565b600082601f8301126138da578081fd5b813567ffffffffffffffff8111156138ee57fe5b613901601f8201601f191660200161403a565b818152846020838601011115613915578283fd5b816020850160208301379081016020019190915292915050565b600060a08284031215613940578081fd5b61394a60a061403a565b905081358152602082013567ffffffffffffffff8082111561396b57600080fd5b613977858386016138ca565b6020840152604084013591508082111561399057600080fd5b61399c8583860161380e565b604084015260608401359150808211156139b557600080fd5b6139c18583860161380e565b606084015260808401359150808211156139da57600080fd5b506139e7848285016137b9565b60808301525092915050565b600060208284031215613a04578081fd5b81356106ee8161407c565b60008060408385031215613a21578081fd5b8235613a2c8161407c565b91506020830135613a3c8161407c565b809150509250929050565b600080600060608486031215613a5b578081fd5b8335613a668161407c565b92506020840135613a768161407c565b929592945050506040919091013590565b60008060008060808587031215613a9c578081fd5b8435613aa78161407c565b93506020850135613ab78161407c565b925060408501359150606085013567ffffffffffffffff811115613ad9578182fd5b613ae5878288016138ca565b91505092959194509250565b60008060408385031215613b03578182fd5b8235613b0e8161407c565b915060208301358015158114613a3c578182fd5b60008060408385031215613b34578182fd5b8235613b3f8161407c565b946020939093013593505050565b600060208284031215613b5e578081fd5b81356001600160e01b0319811681146106ee578182fd5b600080600080600060a08688031215613b8c578283fd5b853567ffffffffffffffff80821115613ba3578485fd5b613baf89838a016138ca565b96506020880135915080821115613bc4578485fd5b613bd089838a016138ca565b95506040880135915080821115613be5578485fd5b613bf189838a016138ca565b94506060880135915080821115613c06578283fd5b613c1289838a016138ca565b93506080880135915080821115613c27578283fd5b50613c3488828901613744565b9150509295509295909350565b60008060408385031215613c53578182fd5b823567ffffffffffffffff811115613c69578283fd5b613c758582860161392f565b9250506020830135613a3c8161407c565b600080600060608486031215613c9a578081fd5b833567ffffffffffffffff811115613cb0578182fd5b613cbc8682870161392f565b9350506020840135613ccd8161407c565b91506040840135613cdd8161407c565b809150509250925092565b600060208284031215613cf9578081fd5b5035919050565b600080600060608486031215613d14578081fd5b833592506020840135613ccd8161407c565b60008060408385031215613d38578182fd5b50508035926020909101359150565b6000815180845260208085019450808401835b83811015613d9357815180516001600160a01b031688528301516001600160601b03168388015260409096019590820190600101613d5a565b509495945050505050565b60008151808452815b81811015613dc357602081850181015186830182015201613da7565b81811115613dd45782602083870101525b50601f01601f19169290920160200192915050565b6001600160a01b0391909116815260200190565b6001600160a01b0384168152606060208201819052600090613e2190830185613d9e565b828103604084015261313b8185613d9e565b6001600160a01b039290921682526001600160601b0316602082015260400190565b6000602082526106ee6020830184613d47565b901515815260200190565b6000602082526106ee6020830184613d9e565b60208082526017908201527f6d696e746572206973206e6f7420746865206f776e6572000000000000000000604082015260600190565b6020808252818101527f43726561746f722073686172652073686f756c6420626520706f736974697665604082015260600190565b6020808252601190820152701d1bdad95b9259081a5b98dbdc9c9958dd607a1b604082015260600190565b6020808252600b908201526a1b9bdd08185b1b1bddd95960aa1b604082015260600190565b60208082526019908201527f4163636f756e742073686f756c642062652070726573656e7400000000000000604082015260600190565b60208082526031908201527f4552433732313a207472616e736665722063616c6c6572206973206e6f74206f6040820152701ddb995c881b9bdc88185c1c1c9bdd9959607a1b606082015260800190565b6020808252602e908201527f746f74616c20616d6f756e74206f662063726561746f7273207368617265207360408201526d0686f756c642062652031303030360941b606082015260800190565b90815260200190565b6000838252604060208301526117836040830184613d47565b60405181810167ffffffffffffffff8111828210171561405657fe5b604052919050565b600067ffffffffffffffff82111561407257fe5b5060209081020190565b6001600160a01b038116811461076157600080fdfe456e756d657261626c655365743a20696e646578206f7574206f6620626f756e64734552433732313a207472616e7366657220746f206e6f6e20455243373231526563656976657220696d706c656d656e7465724f776e61626c653a206e6577206f776e657220697320746865207a65726f20616464726573734552433732313a207472616e7366657220746f20746865207a65726f206164647265737345434453413a20696e76616c6964207369676e6174757265202773272076616c7565416464726573733a20696e73756666696369656e742062616c616e636520666f722063616c6c4552433732313a206f70657261746f7220717565727920666f72206e6f6e6578697374656e7420746f6b656e4552433732313a20617070726f76652063616c6c6572206973206e6f74206f776e6572206e6f7220617070726f76656420666f7220616c6c4552433732313a2062616c616e636520717565727920666f7220746865207a65726f20616464726573734552433732313a206f776e657220717565727920666f72206e6f6e6578697374656e7420746f6b656e496e697469616c697a61626c653a20636f6e747261637420697320616c726561647920696e697469616c697a656445434453413a20696e76616c6964207369676e6174757265202776272076616c7565456e756d657261626c654d61703a20696e646578206f7574206f6620626f756e64734552433732313a20617070726f76656420717565727920666f72206e6f6e6578697374656e7420746f6b656e4552433732314d657461646174613a2055524920736574206f66206e6f6e6578697374656e7420746f6b656e4552433732313a207472616e73666572206f6620746f6b656e2074686174206973206e6f74206f776e4552433732314d657461646174613a2055524920717565727920666f72206e6f6e6578697374656e7420746f6b656e4552433732313a20617070726f76616c20746f2063757272656e74206f776e65724552433732313a207472616e736665722063616c6c6572206973206e6f74206f776e6572206e6f7220617070726f7665644552433732314275726e61626c653a2063616c6c6572206973206e6f74206f776e6572206e6f7220617070726f766564a264697066735822122071320af9b4b809fe5502ed4f14f2714c3e329932daf013ef83ccfafef5b1ae8464736f6c63430007060033",
  "immutableReferences": {},
  "source": "// SPDX-License-Identifier: MIT\n\npragma solidity 0.7.6;\npragma abicoder v2;\n\nimport \"@openzeppelin/contracts-upgradeable/access/OwnableUpgradeable.sol\";\nimport \"@openzeppelin/contracts-upgradeable/token/ERC721/ERC721BurnableUpgradeable.sol\";\nimport \"./ERC721Lazy.sol\";\nimport \"../HasContractURI.sol\";\n\ncontract ERC721RaribleUser is OwnableUpgradeable, ERC721BurnableUpgradeable, ERC721Lazy, HasContractURI {\n\n    event CreateERC721RaribleUser(address owner, string name, string symbol);\n\n    function __ERC721RaribleUser_init(string memory _name, string memory _symbol, string memory baseURI, string memory contractURI, address[] memory operators) external initializer {\n        _setBaseURI(baseURI);\n        __ERC721Lazy_init_unchained();\n        __Context_init_unchained();\n        __ERC165_init_unchained();\n        __Ownable_init_unchained();\n        __ERC721Burnable_init_unchained();\n        __Mint721Validator_init_unchained();\n        __HasContractURI_init_unchained(contractURI);\n        __RoyaltiesV2Upgradeable_init_unchained();\n        __ERC721_init_unchained(_name, _symbol);\n        for(uint i = 0; i < operators.length; i++) {\n            setApprovalForAll(operators[i], true);\n        }\n        emit CreateERC721RaribleUser(_msgSender(), _name, _symbol);\n    }\n\n    function mintAndTransfer(LibERC721LazyMint.Mint721Data memory data, address to) public override virtual {\n        require(owner() == data.creators[0].account, \"minter is not the owner\");\n        super.mintAndTransfer(data, to);\n    }\n    uint256[50] private __gap;\n}\n",
  "sourcePath": "/Users/isaacpatka/rarible/coco/protocol-contracts/tokens/contracts/erc-721/ERC721RaribleUser.sol",
  "compiler": {
    "name": "solc",
    "version": "0.7.6+commit.7338295f.Emscripten.clang"
  },
  "schemaVersion": "3.3.4",
  "updatedAt": "2021-08-04T21:18:50.574Z",
  "devdoc": {
    "kind": "dev",
    "methods": {
      "approve(address,uint256)": {
        "details": "See {IERC721-approve}."
      },
      "balanceOf(address)": {
        "details": "See {IERC721-balanceOf}."
      },
      "baseURI()": {
        "details": "Returns the base URI set via {_setBaseURI}. This will be automatically added as a prefix in {tokenURI} to each token's URI, or to the token ID if no specific URI is set for that token ID."
      },
      "burn(uint256)": {
        "details": "Burns `tokenId`. See {ERC721-_burn}. Requirements: - The caller must own `tokenId` or be an approved operator."
      },
      "getApproved(uint256)": {
        "details": "See {IERC721-getApproved}."
      },
      "isApprovedForAll(address,address)": {
        "details": "See {IERC721-isApprovedForAll}."
      },
      "name()": {
        "details": "See {IERC721Metadata-name}."
      },
      "owner()": {
        "details": "Returns the address of the current owner."
      },
      "ownerOf(uint256)": {
        "details": "See {IERC721-ownerOf}."
      },
      "renounceOwnership()": {
        "details": "Leaves the contract without owner. It will not be possible to call `onlyOwner` functions anymore. Can only be called by the current owner. NOTE: Renouncing ownership will leave the contract without an owner, thereby removing any functionality that is only available to the owner."
      },
      "safeTransferFrom(address,address,uint256)": {
        "details": "See {IERC721-safeTransferFrom}."
      },
      "safeTransferFrom(address,address,uint256,bytes)": {
        "details": "See {IERC721-safeTransferFrom}."
      },
      "setApprovalForAll(address,bool)": {
        "details": "See {IERC721-setApprovalForAll}."
      },
      "supportsInterface(bytes4)": {
        "details": "See {IERC165-supportsInterface}. Time complexity O(1), guaranteed to always use less than 30 000 gas."
      },
      "symbol()": {
        "details": "See {IERC721Metadata-symbol}."
      },
      "tokenByIndex(uint256)": {
        "details": "See {IERC721Enumerable-tokenByIndex}."
      },
      "tokenOfOwnerByIndex(address,uint256)": {
        "details": "See {IERC721Enumerable-tokenOfOwnerByIndex}."
      },
      "tokenURI(uint256)": {
        "details": "See {IERC721Metadata-tokenURI}."
      },
      "totalSupply()": {
        "details": "See {IERC721Enumerable-totalSupply}."
      },
      "transferFrom(address,address,uint256)": {
        "details": "See {IERC721-transferFrom}."
      },
      "transferOwnership(address)": {
        "details": "Transfers ownership of the contract to a new account (`newOwner`). Can only be called by the current owner."
      }
    },
    "version": 1
  },
  "userdoc": {
    "kind": "user",
    "methods": {},
    "version": 1
  }
}